:10218C0030303031003030303200463030330030B7
:10219C00303033003131352E32392E3137382E383C
:1021AC00310047505253303031003030303400461B
:1021BC003031340030313030003032303000303398
:0821CC003030003034303000E7
:1010540042043200004204340000420430000042E2
:0410640003EE000097
:1025D400538E7F5389F0438901E4F58A758CB8C220
:0425E4008DD28C22E6
:0D26850053D1FDE4F5D575D4DC43D1082216
:03009B00021F271A
:101F2700C0E0C0F0C083C082C0D075D000C000C080
:101F370001C002C003C004C005C006C00790043337
:101F4700E004F07006900432E004F0900435E004F9
:101F5700F07006900434E004F09003EFE004F070B2
:101F6700069003EEE004F07F54122707D007D0064F
:101F7700D005D004D003D002D001D000D0D0D08279
:071F8700D083D0F0D0E0325E
:1025E800E4F593F594F5917592C0F595F596F5C9CE
:0425F80075CAFF227F
:101A0300E4900359F0A3F0A3F07F0112145E7F0268
:101A130012145E1225E8122739121D7B1200967BE1
:101A2300FF7A21798C122723E4900432F0A3F0A3E8
:101A3300F0A3F09003EEF0A3F0900430F0A3F012C3
:101A43001372D3900433E09405900432E094004081
:101A53000A1226DCE4900432F0A3F0D3900435E0BC
:101A6300940A900434E09400400A1226E5E49004BA
:101A730034F0A3F0D39003EFE0943C9003EEE094B2
:101A830000400A122692E49003EEF0A3F0D39004F0
:101A930031E09458900430E09402400A1226EEE4B8
:0B1AA300900430F0A3F01222A2809704
:0E117000900360EFF0A3EBF0A3EAF0A3E9F028
:10117E001224FF900360E0FDE490036DF0A3F0A352
:10118E00F0A37402F07B01A314F0A37403F0A37414
:10119E0064F07A0379F0121953900365EEF0A3EF21
:1011AE00F0C3EE648094805009900365E0FEA3E0E6
:1011BE00FF227BFF7A2179911227237B017A037913
:1011CE00F0900364E0FD7C00122610E4900367F0BB
:1011DE00A3F0900364E0FFC3900368E09F7480F86F
:1011EE00900367E06480985020A3E024F0F582E439
:1011FE003403F583E0FF122707900368E004F070D4
:10120E00D1900367E004F080C97B017A0379F090F6
:10121E000360E0FD90036D7402F0120A66900365A0
:10122E00EEF0A3EFF0C3EE64809480500990036556
:10123E00E0FEA3E0FF227BFF7A217996122723900E
:10124E0003F3E0FEA3E07C002400FFEC3EFEE4FD91
:10125E00900361E0FBA3E0FAA3E0F91202B27E0074
:02126E007F00FF
:01127000225B
:101372009001671202D80000100090016B1202D88F
:10138200000008AE90016F1202D800000D05900116
:10139200731202D80000115C7B017A0179677F0128
:1013A20012117090035CEEF0A3EFF04E700B7BFF16
:1013B2007A21799B12272380247FF41226B47FF4AA
:1013C2007E011226567FF41226B47FF47E01122685
:1013D200567FF41226B47FF47E010226561225FCB3
:1013E20090035EE4F0A37403F090035E74FFF5F0E3
:1013F20012026CFED3E5F09400EE648094804051BA
:1014020090036574FFF0A37421F0A374AEF0A3748B
:1014120001F0A37401F0A37467F0A37404F07BFFDE
:101422007A2179A07D107C27120C3590035CEEF0B6
:10143200A3EFF04E70107BFF7A2179B61227237F3B
:10144200641226B4800B7BFF7A2179BB122723809A
:0B145200987FE87E0312265612273414
:01145D00226C
:0926DC007BFF7A2179C00227235B
:0926E5007BFF7A2179C50227234D
:0C2692007BFF7A2179CA12272302137201
:0926EE007BFF7A2179CF0227233A
:1022A2007FE87E03122656900433E004F070069015
:1022B2000432E004F0900435E004F0700690043437
:1022C200E004F09003EFE004F070069003EEE00407
:1022D200F0900431E004F07006900430E004F02243
:03273900C2CD22EC
:03273C00D2CD22D9
:03273F00C2CD22E6
:0A26B400D2CD7E00122656C2CD22C0
:10263400D2CD7E007C037DE812020E122656C2CD56
:012644002273
:03274200C296221A
:03274500D2962207
:03274800C2962214
:0A26BE00D2967E00122656C2962224
:10264500D2967E007C037DE812020E122656C296B3
:012655002262
:0A269E0000007F167E80DEFEDFFCE8
:0126A800220F
:10265600AD07AC0612269EED1D70011C144C70F4DD
:012666002251
:1016FD004F4B0030383031003038303200415445D6
:10170D00300D0A00463830310041542B43474154C7
:10171D00543D310D0A00463830320041542B4347B9
:10172D004143543D312C310D0A00463830330041D0
:10173D00542B43495053544152543D22544350224B
:10174D002C2200222C002564000D0A0041542B434D
:10175D00495053454E443D003E0041542B434950A2
:10176D00434C4F53450D0A00256C6400256C642CC9
:10177D00007B226D73675F6964223A2231222C222D
:10178D00736D645F6964223A222573222C22646191
:10179D007461223A5B25735D7D0046383034004616
:1017AD00383036002A25640D0A0046383037004699
:1017BD003830360D0A0041540D0A004638303800D5
:0C10680041014600410278004101770080
:10232000900146E064016030900278E02447F58235
:10233000E43401F583E0B5071A900278E004F090E8
:102340000177E0FF900278E0C39F400C9001467453
:0923500001F022E4900278F02271
:10002600EF540FFEC364809480400DD3EE64809439
:0C003600895005EE2430FF22EE2437FF35
:01004200229B
:10261000900369EBF0A3EAF0A3E9F0A3ECF0A3EDDB
:02262000F022A6
:1024DA00C2AF78477C017D011203D5E4900146F032
:1024EA00900278F07B017A0179471225BF90017733
:0524FA00EFF0D2AF225B
:0826F700900146E0FF7E002285
:041E57007D1E7C0070
:0B1E5B0090037AEBF0A3EAF0A3E9F09B
:101E6600AE04AF057C007D6412020EA3EEF0A3EF74
:101E7600F07BFF7A1679FD1224DA7BFF7A17790058
:101E860012272390037AE0FBA3E0FAA3E0F91227D6
:101E96004E90037D74FFF5F012026C45F06015124A
:101EA60026F7EF64014E7003FEFF227F0A7E0012C2
:081EB600265680DD7EFF7FFF50
:011EBE002201
:071AAE00F07B017A0179F8D9
:0B1AB500900384EBF0A3EAF0A3E9F03B
:101AC00090038AE0FEA3E0FF7C007D6412020EA377
:101AD000EEF0A3EFF0900387E0FBA3E0FAA3E0F9B8
:101AE0001224DA7BFF7A177905122723900384E00A
:101AF000FBA3E0FAA3E0F912274E900387E0FBA3D3
:101B0000E0FAA3E0F91225BFEF4E701790038AE0C8
:101B1000FEA3E0FF7C037DE812020E1226567E0033
:101B20007F002290038C74FFF5F012026C45F06088
:101B3000151226F7EF64014E7003FEFF227F0A7E26
:0A1B40000012265680DD7EFF7FFFB5
:011B4A002278
:101C7100E4900378F0A37403F0900379E0D3940027
:101C8100401B7BFF7A17790A121E57900378EFF0F9
:101C9100600B7BFF7A17791112272380DC9003797F
:101CA1007403F0900379E0D39400401B7BFF7A1713
:101CB1007916121E57900378EFF0600B7BFF7A17AD
:101CC100792312272380DC9003797403F090037940
:101CD100E0D39400401B7BFF7A177928121E57909E
:101CE1000378EFF0600B7BFF7A1779371227238097
:051CF100DC7E007F0015
:011CF60022CB
:10189200900378EBF0A3EAF0A3E9F0A3ECF0A3ED58
:0118A200F055
:1018A30078F87C017D017BFF7A17793C1203D59090
:1018B3000378E0F9A3E0FAA3E0900387C9F0A3EA71
:1018C300F0A3E9F07B017A0179F8121DEC9003870C
:1018D30074FFF0A37417F0A37450F07B017A0179BD
:1018E300F8121DEC9003C974FFF0A37417F0A374EE
:1018F30053F090037BE0FFA3E09003CCCFF0A3EF82
:10190300F07B017A03797D12053E9003877401F021
:10191300A37403F0A3747DF07B017A0179F8121D9F
:10192300EC90038774FFF0A37417F0A37456F07B55
:10193300017A0179F8121DEC90038774FFF0A37408
:0F19430016F0A374FDF0A3E4F0A3741E121AAE05
:011952002272
:1017CD00900378EBF0A3EAF0A3E9F0A3ECF0A3ED1E
:0117DD00F01B
:1017DE00E4A3F078F87C017D017BFF7A177959122A
:1017EE0003D59003C974FFF0A37417F0A37453F0DC
:1017FE0090037BE0FFA3E09003CCCFF0A3EFF07B50
:10180E00017A03797E12053E9003877401F0A3746A
:10181E0003F0A3747EF07B017A0179F8121DEC902F
:10182E00038774FFF0A37417F0A37456F07B017A4C
:10183E000179F8121DEC90038774FFF0A37417F072
:10184E00A37465F0A3E4F0A3740A121AAE90037D9C
:10185E00EFF090038774FFF0A37416F0A374FDF0FD
:10186E00A3E4F0A3740AF0900378E0FBA3E0FAA3DC
:10187E00E0F9121AB590037DEFF07003FEFF227EA1
:03188E00FF7FFFDA
:011891002234
:0A26C8007BFF7A177967121E572274
:10266700900471EBF0A3EAF0A3E9F07EFF7FFF226D
:0B0DC400900378EBF0A3EAF0A3E9F045
:100DCF0090037EE0C3940840057EFF7FFF22E490EE
:100DDF000384F0A3F0900382F0A3F090037EE0FF72
:100DEF00FB900382E0FCA3E0FDC39B7480F8EC64EE
:100DFF0080984003020EDCEF24FFFFE434FFFEED8A
:100E0F00B50755ECB50651900385E02486F9E43417
:100E1F0003FA7B01C003C002C0019003C974FFF045
:100E2F00A37417F0A37475F0EDAE047802C333CE3C
:100E3F0033CED8F9FF90037BE0FBA3E0FAA3E0F9F0
:100E4F008F828E831202829003CC1202CCD001D0FB
:100E5F0002D00312053E8053900385E02486F9E407
:100E6F003403FA7B01C003C002C0019003C974FFB1
:100E7F00F0A37417F0A37479F0900382E0FEA3E05F
:100E8F007802C333CE33CED8F9FF90037BE0FBA3B8
:100E9F00E0FAA3E0F98F828E831202829003CC12C4
:100EAF0002CCD001D002D00312053E7B017A037928
:100EBF00861225BF900384EEF0A3EFF0900383E03A
:100ECF0004F07006900382E004F0020DEA9003C96B
:100EDF0074FFF0A37417F0A3747EF0900378E0F919
:100EEF00A3E0FAA3E09003CCC9F0A3EAF0A3E9F0E2
:100EFF00A37401F0A37403F0A37486F090037FE052
:0E0F0F00FBA3E0FAA3E0F912053E7E007F008E
:010F1D0022B1
:100C3500900360EBF0A3EAF0A3E9F0A3ECF0A3EDD9
:010C4500F0BE
:100C4600121C7190036CEEF0A3EFF0C3EE64809477
:100C56008050127BFF7A1779A712272390036CE046
:100C6600FEA3E0FF22900360E0FBA3E0FAA3E0F915
:100C7600A3E0FCA3E0FD12189290036CEEF0A3EF44
:100C8600F0C3EE6480948050127BFF7A1779AC1221
:100C9600272390036CE0FEA3E0FF22900368E0F9AF
:100CA600A3E0FAA3E090037BC9F0A3EAF0A3E9F07E
:100CB60090036BE090037EF0A37401F0A37401F03F
:100CC600A37478F0900365E0FBA3E0FAA3E0F912C1
:100CD6000DC47B017A0179781225BF9003C974FF90
:100CE600F0A37417F0A374B1F0A3EEF0A3EFF07BBA
:100CF600017A03796E12053E78F87C017D017B014D
:100D06007A03796E1203D59003877401F0A37401F8
:100D1600F0A37478F07B017A0179F8121DEC7878EB
:100D26007C017D017B017A0179F81203D57B017A7A
:100D36000179781225BFAC06AD077B017A01797877
:100D46001217CD90036CEEF0A3EFF0C3EE6480941F
:100D56008050127BFF7A1779B712272390036CE035
:100D6600FEA3E0FF221226C890036CEEF0A3EFF07C
:100D7600C3EE6480948050127BFF7A1779BC1227E9
:100D86002390036CE0FEA3E0FF227BFF7A1779C372
:100D96007D057C00121E5B90036CEEF0A3EFF0C3A2
:100DA600EE6480948050127BFF7A1779C81227234D
:0D0DB60090036CE0FEA3E0FF227E007F00B2
:010DC300220D
:10083E0030373030004637303200463730330046DE
:10084E0037303400463730350046373036003037D3
:10085E00303100463730310000C1814001C0804147
:10086E0001C0804100C1814001C0804100C1814072
:10087E0000C1814001C0804101C0804100C1814062
:10088E0000C1814001C0804100C1814001C0804152
:10089E0001C0804100C1814001C0804100C1814042
:1008AE0000C1814001C0804100C1814001C0804132
:1008BE0001C0804100C1814000C1814001C0804122
:1008CE0001C0804100C1814001C0804100C1814012
:1008DE0000C1814001C0804101C0804100C1814002
:1008EE0000C1814001C0804100C1814001C08041F2
:1008FE0001C0804100C1814000C1814001C08041E2
:10090E0001C0804100C1814001C0804100C18140D1
:10091E0000C1814001C0804100C1814001C08041C1
:10092E0001C0804100C1814001C0804100C18140B1
:10093E0000C1814001C0804101C0804100C18140A1
:10094E0000C1814001C0804100C1814001C0804191
:10095E0001C0804100C1814000C0C101C30302C279
:10096E00C60607C705C5C404CC0C0DCD0FCFCE0EE1
:10097E000ACACB0BC90908C8D81819D91BDBDA1A51
:10098E001EDEDF1FDD1D1CDC14D4D515D71716D6C1
:10099E00D21213D311D1D010F03031F133F3F23231
:1009AE0036F6F737F53534F43CFCFD3DFF3F3EFEA1
:1009BE00FA3A3BFB39F9F83828E8E929EB2B2AEA11
:1009CE00EE2E2FEF2DEDEC2CE42425E527E7E62681
:1009DE0022E2E323E12120E0A06061A163A3A262F1
:1009EE0066A6A767A56564A46CACAD6DAF6F6EAE61
:1009FE00AA6A6BAB69A9A86878B8B979BB7B7ABAD1
:100A0E00BE7E7FBF7DBDBC7CB47475B577B7B67640
:100A1E0072B2B373B17170B05090915193535292B0
:100A2E0096565797559594549C5C5D9D5F9F9E5E20
:100A3E005A9A9B5B99595898884849894B8B8A4A90
:100A4E004E8E8F4F8D4D4C8C448485458747468600
:080A5E00824243834181804084
:0B195300900369EBF0A3EAF0A3E9F0B9
:10195E00900370E025E0FF90036FE033FEEF240765
:10196E00FFE43EFED3EF9440EE940040057EFF7FF1
:10197E00FF22900369E0FBA3E0FAA3E0F9ED120168
:10198E00DA900369E0FBA3E0FAA3E0F9900001749A
:10199E00031201EC90036DE09000021201EC900333
:1019AE006EE09000031201EC90036FE090000412C1
:1019BE0001EC900370E09000051201EC7D061222FE
:1019CE001BAD07AC06ECFF900369E0FBA3E0FAA3A6
:1019DE00E0F9900006EF1201ECED9000071201EC19
:1019EE00900371E0FBA3E0FAA3E0F974081201DAA8
:0419FE007E007F00E8
:011A020022C1
:0E0A6600900369EBF0A3EAF0A3E9F0A3EDF032
:100A7400A3E025E02405900370F0A3E4F0A37464DC
:100A8400F090037174FFF5F012026CFED3E5F0945C
:100A940000EE94005003020C277BFF7A08793E1283
:100AA40027231226D2900370E0FEEFC39E50030268
:100AB4000C1DC2AFE4900373F0900370E0FE90034A
:100AC40073E0FFC39E50231225AA900369E0FBA3A1
:100AD400E0FAA3E0F9900373E0F582758300EF1266
:100AE40001EC900373E004F080CFD2AF900369E08F
:100AF400FBA3E0FAA3E0F9120194FF90036CE06F0A
:100B0400600E7BFF7A0879431227237EFF7FFE2243
:100B1400900369E0FBA3E0FAA3E0F990000112015D
:100B2400AD6403600E7BFF7A0879481227237EFFA9
:100B34007FFD22900369E0FBA3E0FAA3E0F99000B3
:100B4400021201ADFD90036DE075F002A46D700218
:100B5400E5F060137D041215437BFF7A08794D128A
:100B640027237EFF7FFC22900369E0FBA3E0FAA326
:100B7400E0F9900370E024FEFD12221B90036EEE58
:100B8400F0A3EFF07B017A03796E7D021215439096
:100B94000370E024FEFFE434FFFE900369E0FBA34E
:100BA400E0FAA3E0F98F828E831201ADFD90036E0B
:100BB400E06D7001E4600E7BFF7A087952122723FE
:100BC4007EFF7FFB22900370E024FFFFE434FFFEEE
:100BD400900369E0FBA3E0FAA3E0F98F828E83120D
:100BE40001ADFF90036FE06F7001E4600E7BFF7A4C
:100BF4000879571227237EFF7FFA227BFF7A087930
:100C04005C122723900369E0FBA3E0FAA3E0F97DDB
:100C1400071216207E007F00227F647E0012265673
:100C2400020A857BFF7A0879611227237EFF7FFF02
:010C3400229D
:0E221B00900374EBF0A3EAF0A3E9F0A3EDF05A
:102229007FFF7DFF900377E0FE14F0EE60259003B9
:1022390074E0FBA3E475F00112026CA9F0FA120133
:10224900946FFB7A00900866936DFFEB9009669393
:07225900FD80D1EFFEEDFF57
:01226000225B
:07270700AD077F01022595DB
:07270E00AD077F01022595D4
:03274B000220A3C6
:03274E000220F373
:05009600E4FF0221D48B
:06272300E4FDFF021EBFF1
:0E154300900374EBF0A3EAF0A3E9F0A3EDF03F
:10155100E0D39408400302161FE4900378F0A3F04F
:10156100900377E0FFA3E0FCA3E0FDC39F7480F844
:10157100EC64809840030215FA900374E0FBA3E049
:10158100FAA3E0F98D828C831201ADFFC4540FFFE1
:10159100120026AD07900379E025E0FF900378E083
:1015A10033FE747A2FF58274033EF583EDF09003D8
:1015B10074E0FBA3E0FAA3E0F9900378E0FEA3E076
:1015C100F5828E831201AD540FFF120026AD0790F4
:1015D1000379E025E0FF900378E033FE747B2FF57B
:1015E1008274033EF583EDF0900379E004F0700618
:1015F100900378E004F0021561900379E025E0FFA3
:10160100900378E033FE747A2FF58274033EF583FC
:0E161100E4F07B017A03797AFD7F02121EBF9E
:01161F0022A8
:0E162000900374EBF0A3EAF0A3E9F0A3EDF061
:10162E00E0D3940840030216FCE4900378F0A3F094
:10163E00900377E0FFA3E0FCA3E0FDC39F7480F866
:10164E00EC64809840030216D7900374E0FBA3E08D
:10165E00FAA3E0F98D828C831201ADFFC4540FFF03
:10166E00120026AD07900379E025E0FF900378E0A5
:10167E0033FE747A2FF58274033EF583EDF09003FA
:10168E0074E0FBA3E0FAA3E0F9900378E0FEA3E098
:10169E00F5828E831201AD540FFF120026AD079016
:1016AE000379E025E0FF900378E033FE747B2FF59D
:1016BE008274033EF583EDF0900379E004F070063A
:1016CE00900378E004F002163E900379E025E0FFE7
:1016DE00900378E033FE747A2FF58274033EF5831F
:0E16EE00E4F07B017A03797AFD7F04121EBFBF
:0116FC0022CB
:03275100021EBFA6
:0E267700E4F5C7F5C5F5C675C3FF75C4FF22AF
:101FF3009003A2EBF0A3EAF0A3E9F0AD07AC06C2AD
:10200300AF75C78175C501ECF5C3AF058FC475C640
:102013005A75C6A5009003A2E0FBA3E0FAA3E0F97A
:10202300E5C21201DA0DBD00010C9003A3E475F0C3
:10203300011202569003A574FFF5F012025645F003
:0820430070C2122677D2AF2211
:10000300AD07AC06C2AFECF5C3AF058FC475C781AE
:1000130075C50375C65A75C6A500122677D2AF22D9
:10204B0090045FEBF0A3EAF0A3E9F0AD07AC06C296
:10205B00AF75C78175C502ECF5C3AF058FC490048E
:10206B005FE0FBA3E0FAA3E0F9120194F5C275C699
:10207B005A75C6A5000DBD00010C900460E475F007
:10208B000112025690046274FFF5F012025645F0ED
:08209B0070C2122677D2AF22B9
:101074000F26303132333435363738392A23202E8F
:101084000060E002790000E00F1010082008201032
:1010940010E00F0000000010201020F83F00200096
:1010A400200000000000007030082808240822886E
:1010B4002170300000000030180820882088204863
:1010C40011300E000000000007C00420241024F892
:1010D4003F002400000000F8190821882088200817
:1010E40011080E00000000E00F101188208820185D
:1010F40011000E0000000038000800083FC8003846
:1011040000080000000000701C88220821082188C3
:1011140022701C00000000E0001031082208221098
:1011240011E00F0000400240028001F00F800140F6
:1011340002400200004004C03F78044004C03F78ED
:101144000440040000000000000000000000000053
:10115400000000000000000030003000000000002B
:0B11640000000000000422000000005A
:10238E0090044DE0FEA3E07803C333CE33CED8F9EC
:10239E00900452F0EE900451F0900450E025E0903D
:1023AE000454F090044FE033900453F07B017A0410
:0223BE00795153
:0123C00022FA
:10214300782306E6187001067822E6FE08E6FF7C8F
:10215300007D101202207825EF26F618EE36F67869
:1021630022E6FE08E6FF7C007D101202207822A6FC
:102173000408A60508E6FE08E6FF7C007D041202BB
:09218300207824A60408A6052218
:1023C1007823E6184670077825E6184660247823B6
:1023D100E61618700116C37822E6648094805012C4
:1023E1007825E616187001167823741026F618E47D
:0323F10036F6229B
:072715007B007A007922220B
:10256300900469E0FEA3E0FF7822A60608A607A36D
:0C257300E0FEA3E0FF08A60608A6072271
:0B26A900E47822F608F608F608F62296
:101D7B001226227F647E001226567FE21224687F91
:101D8B00AF1224687F2F1224687F251224687F816D
:101D9B001224687F1F1224687FA01224687FC81248
:101DAB0024687FA61224687FA41224687FF812246B
:101DBB0068E4FF1224687FA61224687FB812246897
:101DCB007F10122468E4FF122468E490035CF07F18
:101DDB00FF12230290035CE004F0E0C3948040EF19
:011DEB0022D5
:0521D40090035CEFF038
:1021D900C292E4A3F090035DE0FFC394085032EF8C
:1021E90024B0FF1224687F10122468E4FF122468C7
:1021F900E490035EF090035CE0FF12230290035E1B
:10220900E004F0E0C3948040EC90035DE004F080CA
:01221900C400
:01221A0022A1
:10127100E490043AF0A3F0900436F0900436E024B0
:1012810026F8E6FE600B6F6008900436E004F080FB
:10129100EAEE7003021371122715783C7C047D017C
:1012A1007E007F0412016E784D7C047D017B017A02
:1012B10004793C7E007F0412016E12238E78407CFB
:1012C100047D017E007F0412016E900443E024B08E
:1012D100FF122468900441E0FF90043812245790D3
:1012E1000439E0FF122468900436E075F010A4FF81
:1012F10090043AE5F0F0A3EFF0E4900437F09004A5
:1013010037E0FFC39410501E90043BE0FEEF2E2403
:1013110079F582E43402F583E0FF12230290043769
:10132100E02402F080D8900443E024B1FF12246845
:10133100900438E02410FF122468900439E0FF1271
:1013410024689004377401F0900437E0FFC39410CF
:10135100501E90043BE0FEEF2E2479F582E4340226
:10136100F583E0FF122302900437E02402F080D8D5
:011371002259
:0B0F1E00900395EFF0A3EDF0A3EBF0C3
:100F2900E490039BF0A3F0900397E0FFC394614022
:100F390006EFD3947A400CEFC394414068EFD39401
:100F49005A5062EFC394614024EFD3947A501EEF54
:100F5900249F75F010A4FFAEF07B007A00793590DC
:100F690003A5E4F0A37410F0121FF38022900397F5
:100F7900E075F010A4248FFFE5F034FDFE7B007AC4
:100F89000079359003A5E4F0A37410F0121FF390D3
:100F9900039DE4F0A37400F0A37435F0E490039B7F
:100FA900F0A3F08035E4FF74262FF8E6FE600A907E
:100FB9000397E06E60030F80EEEE7003021053EFAB
:100FC90075F010A4FF90039BE5F0F0A3EFF0A37474
:100FD90001F0A37402F0A37479F0900395E024B0B2
:100FE900FF122468900396E0FF900399122457900A
:100FF900039AE0FF122468E4900398F0900398E0C4
:10100900FFC39410500C1222E2900398E02402F0DE
:1010190080EA900395E024B1FF122468900399E0D7
:101029002410FF12246890039AE0FF1224689003A9
:10103900987401F0900398E0FFC39410500C1222A9
:0A104900E2900398E02402F080EA30
:01105300227A
:0B1EBF0090038EEBF0A3EAF0A3E9F023
:101ECA00E4A3F0A3F0A3EFF0A3EDF090038EE0FB00
:101EDA00A3E0FAA3E0F9A3E0FEA3E0F5828E831261
:101EEA0001ADFB6037900394E0FD900393E0FF128D
:101EFA000F1E900394E02408F0E0C39478400D90FC
:101F0A000393E004F0E094074002E4F0900392E0C7
:0C1F1A0004F070B7900391E004F080AF79
:011F26002298
:0B1F8E00900444EBF0A3EAF0A3E9F09C
:101F9900E4A3F0A3F012271578497C047D01FE7FA4
:101FA9000412016E900444E0FBA3E0FAA3E0F9A354
:101FB900E0FEA3E0F5828E831201ADFF60161212D6
:101FC90071122143900448E004F070D8900447E06E
:101FD90004F080D078697C047D017B017A04794919
:0A1FE9007E007F0412016E022563E2
:06272900121271022143AF
:0B226100900464EBF0A3EAF0A3E9F0A6
:10226C00E4A3F0A3F0900464E0FBA3E0FAA3E0F98C
:10227C00A3E0FEA3E0F5828E831201ADFF6016127F
:10228C001271122143900468E004F070D890046736
:05229C00E004F080D019
:0122A100221A
:0826FF001223C17F20021271B9
:10245700F0E0FEC4540FFEF0EF540FA3F0EE24108B
:01246700FF75
:10246800C297C292E4FEC295EF30E704D29380028D
:0D247800C293D295EF25E0FF0EEEB408E907
:012485002234
:1022E20090039CE02FFF90039BE03400FE90039D3F
:1022F200E0FBA3E0FAA3E0F98F828E831201ADFF27
:10230200D297C292E4FEC295EF30E704D2938002E4
:0D231200C293D295EF25E0FF0EEEB408E96E
:01231F00229B
:10262200C2A07F027E00122656D2A07F047E000244
:0226320026562A
:07271C00C2B4D2B502272F61
:05272F00C2B4D2B52286
:1025FC001227347F647E0012265612272F7F647EAA
:04260C00000226564C
:05273400C2B5D2B42281
:1025230053A23F759850438E40538EFE53890F75C7
:102533008BD0758DFFC2ABD28ED29CD2ACD2AF22E0
:1025430053A23F759850438E40538EFE53890F75A7
:102553008BC0758DFDC2ABD28ED29CD2ACD2AF22D2
:0327540002254318
:10257F0053BAFE759A50438E0475D7D075D6FF4364
:06258F008E1043AF012293
:02145E00AD07D8
:10146000ED6401706C90000004F0E4A3F0A3F0A31D
:10147000F0900007F0A3F0A3F07B0190000404F0CB
:10148000A37400F0A374B0F090000AEBF0A3740012
:10149000F0A3741AF0E4FE900004E0FBA3E0FAA3CA
:1014A000E0F98E82758300E41201EC0EEEB432E7AF
:1014B000E4FE90000AE0FBA3E0FAA3E0F98E827557
:1014C0008300E41201EC0EEEB432E71227547F00E1
:1014D00022ED6402706A90000D7402F0E4A3F0A3A0
:1014E000F0A3F0900014F0A3F0A3F07B01900011A2
:1014F00004F0A37400F0A374E2F0900017EBF0A3E3
:101500007400F0A3744CF0E4FE900011E0FBA3E043
:10151000FAA3E0F98E82758300E41201EC0EEEB4BA
:1015200064E7E4FE900017E0FBA3E0FAA3E0F98E85
:1015300082758300E41201EC0EEEB464E712257F9D
:021540007F002A
:011542002286
:10004600EFB40124E4900001F0A3F0A3F0FE9000C9
:1000560004E0FBA3E0FAA3E0F98E82758300E412C4
:1000660001EC0EEEB432E722EFB40223E490000E68
:10007600F0A3F0A3F0FE900011E0FBA3E0FAA3E0EA
:0F008600F98E82758300E41201EC0EEEB464E78C
:010095002248
:10242600900004E0FBA3E0FAA3E0F9900002E0F5D7
:1024360082758300EF1201EC900002E004F0E0C325
:1024460094324002E4F0900003E0700404F0D29964
:012456002263
:1023F400900011E0FBA3E0FAA3E0F990000FE0F5F0
:1024040082758300EF1201EC90000FE004F0E0C34A
:1024140094644002E4F0900010E0700504F0439AE4
:02242400022292
:0B20A300900455EBF0A3EAF0A3E9F075
:1020AE00A3EBF0A3EAF0A3E9F0E4A3F0A3F090040D
:1020BE0055E0FBA3E0FAA3E0F990045BE0FEA3E099
:1020CE00F5828E831201ADFF601A12242690045CF5
:1020DE00E004F0700690045BE004F07F017E0012D5
:0420EE00265680CA28
:0120F20022CB
:0B20F30090038EEBF0A3EAF0A3E9F0ED
:1020FE00A3EBF0A3EAF0A3E9F0E4A3F0A3F09003BE
:10210E008EE0FBA3E0FAA3E0F9900394E0FEA3E0D7
:10211E00F5828E831201ADFF601A1223F49003959F
:10212E00E004F07006900394E004F07F017E00124C
:04213E00265680CAD7
:01214200227A
:10248600900474EBF0A3EAF0A3E9F0120194B4010E
:1024960005AF05122426900474E0FBA3E0FAA3E03E
:0D24A600F9120194B40205AF051223F422CF
:10259500AE07EEB40105AF05022426EEB40205AF81
:0525A500051223F422E1
:1023590090046DEFF0A3EBF0A3EAF0A3E9F0900489
:102369006DE0B4010CA3E0FBA3E0FAA3E0F90220BD
:10237900A390046DE0B4020CA3E0FBA3E0FAA3E090
:05238900F91220F3220F
:1024FF00C2AFE4900007F0FF900017E0FBA3E0FAF3
:10250F00A3E0F98F82758300E41201EC0FEFB43270
:03251F00E7D2AF51
:012522002296
:0926D200C2AF900007E0FFD2AF97
:0126DB0022DC
:1025AA0090000AE0FBA3E0FAA3E0F98F82758300AA
:0525BA001201ADFF223B
:03002300021B4B72
:101B4B00C0E0C083C082C0D075D000C000C001C04F
:101B5B0002C003C006C00730982FC298900009E05E
:101B6B007027900007E0C394324002E4F090000A23
:101B7B00E0FBA3E0FAA3E0F9900007E0FF04F08F8D
:101B8B0082758300E5991201EC309939C299900066
:101B9B0002E0FF900001E0FE6F6025900004E0FB87
:101BAB00A3E0FAA3E0F98E827583001201ADF599DB
:101BBB00900001E004F0E0C394324009E4F08005AA
:101BCB00900003E4F0D007D006D003D002D001D0B0
:0A1BDB0000D0D0D082D083D0E032D9
:03004300021CF7A5
:101CF700C0E0C0F0C083C082C0D075D000C000C0B3
:0D1D070001C002C003C004C005C006C00733
:101D1400E59A30E008539AFEAF9B122320E59A30EF
:101D2400E13A539AFD90000FE0FF90000EE0FE6F41
:101D34006025900011E0FBA3E0FAA3E0F98E827520
:101D440083001201ADF59B90000EE004F0E0C39413
:0C1D5400644009E4F08005900010E4F009
:101D6000D007D006D005D004D003D002D001D000D7
:0B1D7000D0D0D082D083D0F0D0E03281
:03000000021BE5FB
:0C1BE500787FE4F6D8FD758144021C2CCA
:10009E00E709F608DFFA8046E709F208DFFA803E44
:1000AE0088828C83E709F0A3DFFA8032E309F60831
:1000BE00DFFA8078E309F208DFFA807088828C8399
:1000CE00E309F0A3DFFA806489828A83E0A3F6084D
:1000DE00DFFA805889828A83E0A3F208DFFA804C27
:1000EE0080D280FA80C680D4806980F280338010FE
:1000FE0080A680EA809A80A880DA80E280CA803367
:10010E0089828A83ECFAE493A3C8C582C8CCC583DE
:10011E00CCF0A3C8C582C8CCC583CCDFE9DEE780AE
:10012E000D89828A83E493A3F608DFF9ECFAA9F02D
:10013E00EDFB2289828A83ECFAE0A3C8C582C8CC83
:10014E00C583CCF0A3C8C582C8CCC583CCDFEADE9C
:10015E00E880DB89828A83E493A3F208DFF980CCFE
:10016E0088F0EF60010E4E60C388F0ED2402B404F7
:10017E000050B9F582EB2402B4040050AF2323459E
:06018E0082239000EE73D5
:10019400BB010689828A83E0225002E722BBFE0269
:0901A400E32289828A83E493229C
:1001AD00BB010CE58229F582E5833AF583E0225007
:1001BD0006E92582F8E622BBFE06E92582F8E22251
:0D01CD00E58229F582E5833AF583E493226B
:1001DA00BB010689828A83F0225002F722BBFE0104
:0201EA00F322FE
:1001EC00F8BB010DE58229F582E5833AF583E8F049
:1001FC00225006E92582C8F622BBFE05E92582C8F5
:02020C00F222DC
:10020E00EF8DF0A4A8F0CF8CF0A428CE8DF0A42E04
:02021E00FE22BE
:10022000C2D5EC30E709B2D5E4C39DFDE49CFCEEF9
:1002300030E715B2D5E4C39FFFE49EFE1203F2C37C
:10024000E49DFDE49CFC80031203F230D507C3E477
:060250009FFFE49EFE2268
:10025600C5F0F8A3E028F0C5F0F8E5821582700233
:060266001583E038F022D0
:10026C00A3F8E0C5F025F0F0E58215827002158345
:06027C00E0C838F0E822A2
:10028200BB010DE58229F582E5833AF58302045329
:100292005007E92582F8020447BBFE07E92582F8E8
:1002A20002045FE58229F582E5833AF58302046B55
:1002B200BB010789828A830202CC5005E9F8020455
:0A02C2007BBBFE05E9F80204872269
:0C02CC00ECF0A3EDF0A3EEF0A3EFF022A5
:1002D800A8828583F0D083D0821202EF1202EF1237
:1002E80002EF1202EFE473E493A3C583C5F0C5835C
:1002F800C8C582C8F0A3C583C5F0C583C8C582C870
:0103080022D2
:1004D900E50824C9F582E43403F583E00508229090
:1004E90003C63007039003C9E475F00112049302AF
:1004F90001942000E97F2ED2008018EF540F249038
:10050900D43440D4FF30040BEF24BFB41A00500395
:100519002461FFE50960021509050CE50C70020567
:100529000B30070E9003C6E475F001120493EF0235
:1005390001DA0224B37403D2078003E4C207F50881
:100549009003C61204AAE4F509F50BF50CE5096058
:10055900077F2012051C80F5750AFFC201C200C27F
:1005690002C203C205C206C2081204E8FF700D30B8
:1005790007057F0012052DAF0CAE0B22B4255FC213
:10058900D5C2041204E8FF24D0B40A00501A75F049
:100599000A780930D50508B6FF0106C6A426F62053
:1005A900D5047002D20380D924CFB41A00EF5004C5
:1005B900C2E5D20402072ED20180C6D20080C0D281
:1005C9000280BCD2D580BAD20580B47F2012051C26
:1005D9002002077401B5090040F11204D9FF120580
:1005E9001C020556D208D20680951204D9FB1204C2
:1005F900D9FA1204D9F94A4B700679FF7A077BFFB9
:1006090020022EE509602A7E008E82758300120180
:10061900AD60060EEE650A70F0C2D5EBC0E0EAC027
:10062900E0E9C0E0EE120775D0E0F9D0E0FAD0E0D9
:10063900FB120194FF60AAEBC0E0EAC0E0E9C0E068
:1006490012051CD0E02401F9D0E03400FAD0E0FB17
:10065900E50A0460DCD50AD980877BFF7A077971BE
:10066900D202809C791080027908C206C2088008EB
:10067900D2D5790A8004790AC2D5E50A047002F54F
:100689000AE4FAFDFEFF1204D9FC7B0820011312CB
:1006990004D9FD7B1030000A1204D9FE1204D9FFD7
:1006A9007B20EC3382D592D55013C3E43000069FEA
:1006B900FFE49EFEE42001039DFDE49CFCE4CBF8ED
:1006C900C201EC700CCFCECDCCE824F8F870F380E1
:1006D90017C3EF33FFEE33FEED33FDEC33FCEB33A1
:1006E900FB994002FB0FD8E9EB300105F8D0E0C4D3
:1006F90048B201C0E00AEC4D4E4F78207B0070C231
:10070900EAB50A0040BCC0E0120777D0F0D0E0207B
:100719000104C4C0E0C4B201C0F0120505D0F0D58F
:10072900F0EB0205561204B305F353066D5805C4E0
:100739004C05C04206714F06794406794905D943EB
:08074900067F550663460663B6
:1007510045066347081F5005C82D05CC2E05EF2B14
:1007610005D02305ED2008082A058848000005E783
:100771003F3F3F00790AA2D5200314300509B91083
:10078100020404B9080104A2D52006025001042084
:1007910002689202B509005034C0E07F203003198D
:1007A1007F30A20272067205500F1207CEC202C23A
:1007B10006C205C2087F30800F300503E9C0E01290
:1007C100051C300503D0E0F9D0E0B509CC300517A0
:1007D1007F30B9100C12051C7F583004077F7880D8
:1007E10003B9080312051C3002057F2D02051C7F89
:1007F100202008F87F2B2006F322920280CF286E5A
:10080100756C6C2900D2011204D93001F8C201784B
:100811000930D50108F60205882D504349581204C4
:10082100D92403B405004001E490081A9312050D80
:0D083100743A12050DD20375090402066D1C
:101DEC00900384EBF0A3EAF0A3E9F090038AEBF004
:101DFC00A3EAF0A3E9F0900384E0FBA3E475F001FF
:101E0C0012026CA9F0FA12019470EB90038574FF26
:101E1C00F5F0120256900387E0FBA3E475F0011273
:101E2C00026CA9F0FA120194FF900384E0FBA3E486
:101E3C0075F00112026CA9F0FAEF1201DA70D6906B
:0B1E4C00038AE0FBA3E0FAA3E0F92208
:10030900E709F60870FA8046E709F20870FA803EB4
:1003190088828C83E709F0A370FA807EE309F608E6
:1003290070FA8076E309F20870FA806E88828C830D
:10033900E309F0A370FA806289828A83E0A3F60850
:1003490070FA805689828A83E0A3F20870FA804A9B
:1003590080D280FA80C680D4806580F28031801096
:1003690080A680EA809A80A880DA80E280CA8031FB
:1003790089828A83ECFAE493A3C8C582C8CCC58371
:10038900CCF0A3C8C582C8CCC583CC70E9800D89DF
:10039900828A83E493A3F60870F9ECFAA9F0EDFBDD
:1003A9002289828A83ECFAE0A3C8C582C8CCC583B6
:1003B900CCF0A3C8C582C8CCC583CC70EA80DD89DE
:1003C900828A83E493A3F20870F980CE88F0ED2441
:1003D90002B4040050C4F582EB2402B4040050BAFC
:0903E9002323458223900359737C
:1025BF00E4FFFE120194600C0FEF70010E09E97039
:0525CF00F20A80EF227A
:101BF100021A03E493A3F8E493A34003F68001F2ED
:101C010008DFF48029E493A3F85407240CC8C333F4
:101C1100C4540F4420C8834004F456800146F6DFC3
:101C2100E4800B0102040810204080901054E47EEF
:101C3100019360BCA3FF543F30E509541FFEE493B8
:101C4100A360010ECF54C025E060A840B8E493A37F
:101C5100FAE493A3F8E493A3C8C582C8CAC583CAAA
:101C6100F0A3C8C582C8CAC583CADFE9DEE780BE62
:01116F00007F
:1003F200BC000BBE0029EF8DF084FFADF022E4CCEF
:10040200F875F008EF2FFFEE33FEEC33FCEE9DECB7
:10041200984005FCEE9DFE0FD5F0E9E4CEFD22EDFD
:10042200F8F5F0EE8420D21CFEADF075F008EF2F47
:10043200FFED33FD4007985006D5F0F222C398FD38
:050442000FD5F0EA22D5
:0C044700E6FC08E6FD08E6FE08E6FF22E1
:0C045300E0FCA3E0FDA3E0FEA3E0FF221C
:0C045F00E2FC08E2FD08E2FE08E2FF22D9
:10046B00E493FC740193FD740293FE740393FF22D7
:0C047B00ECF608EDF608EEF608EFF622AD
:0C048700ECF208EDF208EEF208EFF222B1
:10049300F8E0FBA3A3E0F925F0F0E58215827002F2
:0704A3001583E0FA38F02296
:0904AA00EBF0A3EAF0A3E9F02253
:1004B300D083D082F8E4937012740193700DA3A3D8
:1004C30093F8740193F5828883E4737402936860EC
:0604D300EFA3A3A380DFEC
:1024B300EFB40A07740D1224BE740A309811A89958
:1024C300B8130CC2983098FDA899C298B811F63089
:0724D30099FDC299F5992261
:00000001FF
